{
  "contractName": "AuctionCollection",
  "abi": [
    {
      "constant": true,
      "inputs": [
        {
          "name": "",
          "type": "uint256"
        }
      ],
      "name": "auctions",
      "outputs": [
        {
          "name": "",
          "type": "address"
        }
      ],
      "payable": false,
      "stateMutability": "view",
      "type": "function"
    },
    {
      "anonymous": false,
      "inputs": [
        {
          "indexed": false,
          "name": "beneficiary",
          "type": "address"
        },
        {
          "indexed": false,
          "name": "title",
          "type": "string"
        },
        {
          "indexed": false,
          "name": "startPrice",
          "type": "uint256"
        },
        {
          "indexed": false,
          "name": "description",
          "type": "string"
        }
      ],
      "name": "AuctionCreated",
      "type": "event"
    },
    {
      "constant": false,
      "inputs": [
        {
          "name": "_title",
          "type": "string"
        },
        {
          "name": "_startPrice",
          "type": "uint256"
        },
        {
          "name": "_description",
          "type": "string"
        },
        {
          "name": "_biddingTime",
          "type": "uint256"
        }
      ],
      "name": "createAuction",
      "outputs": [],
      "payable": false,
      "stateMutability": "nonpayable",
      "type": "function"
    },
    {
      "constant": true,
      "inputs": [],
      "name": "returnAllAuctions",
      "outputs": [
        {
          "name": "",
          "type": "address[]"
        }
      ],
      "payable": false,
      "stateMutability": "view",
      "type": "function"
    }
  ],
  "bytecode": "0x608060405234801561001057600080fd5b5061160b806100206000396000f3fe608060405234801561001057600080fd5b50600436106100415760003560e01c8063571a26a014610046578063d1f28df6146100b4578063d8b1fe1314610113575b600080fd5b6100726004803603602081101561005c57600080fd5b81019080803590602001909291905050506101f5565b604051808273ffffffffffffffffffffffffffffffffffffffff1673ffffffffffffffffffffffffffffffffffffffff16815260200191505060405180910390f35b6100bc610231565b6040518080602001828103825283818151815260200191508051906020019060200280838360005b838110156100ff5780820151818401526020810190506100e4565b505050509050019250505060405180910390f35b6101f36004803603608081101561012957600080fd5b810190808035906020019064010000000081111561014657600080fd5b82018360208201111561015857600080fd5b8035906020019184600183028401116401000000008311171561017a57600080fd5b909192939192939080359060200190929190803590602001906401000000008111156101a557600080fd5b8201836020820111156101b757600080fd5b803590602001918460018302840111640100000000831117156101d957600080fd5b9091929391929390803590602001909291905050506102bf565b005b6000818154811061020257fe5b906000526020600020016000915054906101000a900473ffffffffffffffffffffffffffffffffffffffff1681565b606060008054806020026020016040519081016040528092919081815260200182805480156102b557602002820191906000526020600020905b8160009054906101000a900473ffffffffffffffffffffffffffffffffffffffff1673ffffffffffffffffffffffffffffffffffffffff168152602001906001019080831161026b575b5050505050905090565b60008411610335576040517f08c379a000000000000000000000000000000000000000000000000000000000815260040180806020018281038252600d8152602001807f507269636520746f6f206c6f770000000000000000000000000000000000000081525060200191505060405180910390fd5b60003387878787878760405161034a90610553565b808873ffffffffffffffffffffffffffffffffffffffff1673ffffffffffffffffffffffffffffffffffffffff16815260200180602001868152602001806020018481526020018381038352898982818152602001925080828437600081840152601f19601f8201169050808301925050508381038252868682818152602001925080828437600081840152601f19601f8201169050808301925050509950505050505050505050604051809103906000f08015801561040e573d6000803e3d6000fd5b50905060008190806001815401808255809150509060018203906000526020600020016000909192909190916101000a81548173ffffffffffffffffffffffffffffffffffffffff021916908373ffffffffffffffffffffffffffffffffffffffff160217905550507f81467d7d729c7bb248db3e8df98ba1649ccc8e2a7e7e498a543b0912dc51d2f0338888888888604051808773ffffffffffffffffffffffffffffffffffffffff1673ffffffffffffffffffffffffffffffffffffffff16815260200180602001858152602001806020018381038352888882818152602001925080828437600081840152601f19601f8201169050808301925050508381038252858582818152602001925080828437600081840152601f19601f8201169050808301925050509850505050505050505060405180910390a150505050505050565b61107f806105618339019056fe60806040523480156200001157600080fd5b506040516200107f3803806200107f833981018060405260a08110156200003757600080fd5b810190808051906020019092919080516401000000008111156200005a57600080fd5b828101905060208101848111156200007157600080fd5b81518560018202830111640100000000821117156200008f57600080fd5b5050929190602001805190602001909291908051640100000000811115620000b657600080fd5b82810190506020810184811115620000cd57600080fd5b8151856001820283011164010000000082111715620000eb57600080fd5b505092919060200180519060200190929190505050846000806101000a81548173ffffffffffffffffffffffffffffffffffffffff021916908373ffffffffffffffffffffffffffffffffffffffff160217905550836001908051906020019062000158929190620001c3565b5082600281905550816003908051906020019062000178929190620001c3565b508060048190555060045442016005819055506000600760146101000a81548160ff02191690836001811115620001ab57fe5b02179055506000600681905550505050505062000272565b828054600181600116156101000203166002900490600052602060002090601f016020900481019282601f106200020657805160ff191683800117855562000237565b8280016001018555821562000237579182015b828111156200023657825182559160200191906001019062000219565b5b5090506200024691906200024a565b5090565b6200026f91905b808211156200026b57600081600090555060010162000251565b5090565b90565b610dfd80620002826000396000f3fe60806040526004361061007b5760003560e01c8063a0cda21d1161004e578063a0cda21d1461022b578063c19d93fb14610235578063d442aa621461026e578063ecfc7ecc146102c55761007b565b8063090dd2f6146100805780630965d065146100ab5780636b29099b146101ca5780638d7ff5fe146101d4575b600080fd5b34801561008c57600080fd5b506100956102e7565b6040518082815260200191505060405180910390f35b3480156100b757600080fd5b506100c06102f1565b6040518080602001868152602001806020018581526020018460018111156100e457fe5b60ff168152602001838103835288818151815260200191508051906020019080838360005b83811015610124578082015181840152602081019050610109565b50505050905090810190601f1680156101515780820380516001836020036101000a031916815260200191505b50838103825286818151815260200191508051906020019080838360005b8381101561018a57808201518184015260208101905061016f565b50505050905090810190601f1680156101b75780820380516001836020036101000a031916815260200191505b5097505050505050505060405180910390f35b6101d261045d565b005b3480156101e057600080fd5b506101e9610725565b604051808273ffffffffffffffffffffffffffffffffffffffff1673ffffffffffffffffffffffffffffffffffffffff16815260200191505060405180910390f35b61023361074e565b005b34801561024157600080fd5b5061024a61097e565b6040518082600181111561025a57fe5b60ff16815260200191505060405180910390f35b34801561027a57600080fd5b50610283610991565b604051808273ffffffffffffffffffffffffffffffffffffffff1673ffffffffffffffffffffffffffffffffffffffff16815260200191505060405180910390f35b6102cd6109bb565b604051808215151515815260200191505060405180910390f35b6000600654905090565b60606000606060008060016002546003600654600760149054906101000a900460ff16848054600181600116156101000203166002900480601f0160208091040260200160405190810160405280929190818152602001828054600181600116156101000203166002900480156103a95780601f1061037e576101008083540402835291602001916103a9565b820191906000526020600020905b81548152906001019060200180831161038c57829003601f168201915b50505050509450828054600181600116156101000203166002900480601f0160208091040260200160405190810160405280929190818152602001828054600181600116156101000203166002900480156104455780601f1061041a57610100808354040283529160200191610445565b820191906000526020600020905b81548152906001019060200180831161042857829003601f168201915b50505050509250945094509450945094509091929394565b6000809054906101000a900473ffffffffffffffffffffffffffffffffffffffff1673ffffffffffffffffffffffffffffffffffffffff163373ffffffffffffffffffffffffffffffffffffffff161415610520576040517f08c379a000000000000000000000000000000000000000000000000000000000815260040180806020018281038252600f8152602001807f596f752063616e6e6f74206269642e000000000000000000000000000000000081525060200191505060405180910390fd5b60018081111561052c57fe5b600760149054906101000a900460ff16600181111561054757fe5b1461059d576040517f08c379a0000000000000000000000000000000000000000000000000000000008152600401808060200182810382526037815260200180610d6b6037913960400191505060405180910390fd5b6000600860003373ffffffffffffffffffffffffffffffffffffffff1673ffffffffffffffffffffffffffffffffffffffff1681526020019081526020016000205411610652576040517f08c379a00000000000000000000000000000000000000000000000000000000081526004018080602001828103825260108152602001807f596f7520646964206e6f74206269642e0000000000000000000000000000000081525060200191505060405180910390fd5b6000600860003373ffffffffffffffffffffffffffffffffffffffff1673ffffffffffffffffffffffffffffffffffffffff1681526020019081526020016000205490506000600860003373ffffffffffffffffffffffffffffffffffffffff1673ffffffffffffffffffffffffffffffffffffffff168152602001908152602001600020819055503373ffffffffffffffffffffffffffffffffffffffff166108fc829081150290604051600060405180830381858888f19350505050158015610721573d6000803e3d6000fd5b5050565b60008060009054906101000a900473ffffffffffffffffffffffffffffffffffffffff16905090565b6000809054906101000a900473ffffffffffffffffffffffffffffffffffffffff1673ffffffffffffffffffffffffffffffffffffffff163373ffffffffffffffffffffffffffffffffffffffff1614610810576040517f08c379a000000000000000000000000000000000000000000000000000000000815260040180806020018281038252601b8152602001807f596f7520617265206e6f74207468652062656e6566696369617279000000000081525060200191505060405180910390fd5b6005544211610887576040517f08c379a000000000000000000000000000000000000000000000000000000000815260040180806020018281038252601a8152602001807f41756374696f6e20686173206e6f742079657420656e6465642e00000000000081525060200191505060405180910390fd5b6000809054906101000a900473ffffffffffffffffffffffffffffffffffffffff1673ffffffffffffffffffffffffffffffffffffffff166108fc6006549081150290604051600060405180830381858888f193505050501580156108f0573d6000803e3d6000fd5b50600060086000600760009054906101000a900473ffffffffffffffffffffffffffffffffffffffff1673ffffffffffffffffffffffffffffffffffffffff1673ffffffffffffffffffffffffffffffffffffffff168152602001908152602001600020819055506001600760146101000a81548160ff0219169083600181111561097757fe5b0217905550565b600760149054906101000a900460ff1681565b6000600760009054906101000a900473ffffffffffffffffffffffffffffffffffffffff16905090565b60008060009054906101000a900473ffffffffffffffffffffffffffffffffffffffff1673ffffffffffffffffffffffffffffffffffffffff163373ffffffffffffffffffffffffffffffffffffffff161415610a80576040517f08c379a000000000000000000000000000000000000000000000000000000000815260040180806020018281038252600f8152602001807f596f752063616e6e6f74206269642e000000000000000000000000000000000081525060200191505060405180910390fd5b60006001811115610a8d57fe5b600760149054906101000a900460ff166001811115610aa857fe5b14610b1b576040517f08c379a00000000000000000000000000000000000000000000000000000000081526004018080602001828103825260188152602001807f41756374696f6e206e6f742079657420637265617465642e000000000000000081525060200191505060405180910390fd5b600554421115610b93576040517f08c379a00000000000000000000000000000000000000000000000000000000081526004018080602001828103825260168152602001807f41756374696f6e20616c726561647920656e6465642e0000000000000000000081525060200191505060405180910390fd5b6002543411610bed576040517f08c379a0000000000000000000000000000000000000000000000000000000008152600401808060200182810382526030815260200180610da26030913960400191505060405180910390fd5b6000610c4134600860003373ffffffffffffffffffffffffffffffffffffffff1673ffffffffffffffffffffffffffffffffffffffff16815260200190815260200160002054610d4e90919063ffffffff16565b90506006548111610cba576040517f08c379a00000000000000000000000000000000000000000000000000000000081526004018080602001828103825260198152602001807f4269642076616c7565206d757374206265206869676865722e0000000000000081525060200191505060405180910390fd5b80600860003373ffffffffffffffffffffffffffffffffffffffff1673ffffffffffffffffffffffffffffffffffffffff168152602001908152602001600020819055508060068190555033600760006101000a81548173ffffffffffffffffffffffffffffffffffffffff021916908373ffffffffffffffffffffffffffffffffffffffff160217905550600191505090565b600080828401905083811015610d6057fe5b809150509291505056fe46756e64732068617665206e6f7420796574206265656e207472616e7366657272656420746f207468652062656e65666963696172792e4269642076616c7565206d75737420626520686967686572207468616e20746865207374617274696e67207072696365a165627a7a72305820af32028603ff543159268a1e14d0f195f8625fb69d5ec5b8a117f9edf3b317850029a165627a7a723058204951a2b0c2e25b9fc834671fbb73ae35cc790784a1c4c6dd8cfa46beca8935380029",
  "source": "pragma solidity >=0.4.22 <0.6.0;\n\nimport \"./safemath.sol\";\n\n// AuctionCollection contract consolidates all created auctions into a list\ncontract AuctionCollection {\n\n    event AuctionCreated(address beneficiary, string title, uint256 startPrice, string description);\n\n    Auction[] public auctions;\n\n    // A new Auction contract + contract address are created everytime this function is called, all are stored inside a list\n    function createAuction(string calldata _title, uint256 _startPrice, string calldata _description, uint256 _biddingTime) external {\n        require(_startPrice > 0, \"Price too low\");\n        Auction newAuction = new Auction(msg.sender, _title, _startPrice, _description, _biddingTime);\n        auctions.push(newAuction);\n        emit AuctionCreated(msg.sender, _title, _startPrice, _description);\n    }\n\n    function returnAllAuctions() public view returns(Auction[] memory){\n        return auctions;\n    }\n}\n\n// Auction contract deals with placing auction bids, transfer of money when auction ends and bid refunds\ncontract Auction {\n\n    // using the SafeMath library to prevent uint underflows and overflows\n    using SafeMath for uint256;\n\n    address payable beneficiary;\n    string title;\n    uint256 startPrice;\n    string description;\n    uint256 biddingTime;\n    uint256 auctionEnd;\n    uint256 highestBid;\n    address highestBidder;\n\n    enum State {\n        AuctionCreated,\n        BeneficiaryPaid\n    }\n\n    State public state;\n\n    constructor(address payable _beneficiary, string memory _title, uint256 _startPrice, string memory _description, uint256 _biddingTime) public {\n        // initializes auction with the variables below\n        beneficiary = _beneficiary;\n        title = _title;\n        startPrice = _startPrice;\n        description = _description;\n        biddingTime = _biddingTime;\n        auctionEnd = now + biddingTime;\n        state = State.AuctionCreated;\n        highestBid = 0;\n    }\n\n    mapping(address => uint256) bidderToAmount;\n\n    // modifier limits the function call by beneficiaries only\n    modifier onlyOwner() {\n        require(msg.sender == beneficiary, 'You are not the beneficiary');\n        _;\n    }\n\n    // modifier limits the function call by non-beneficiaries only\n    modifier notOwner() {\n        require(msg.sender != beneficiary, 'You cannot bid.');\n        _;\n    }\n\n    // this function deals with bidders placing bids\n    function placeBid() external payable notOwner() returns(bool) {\n        require(state == State.AuctionCreated, 'Auction not yet created.');\n        require(now <= auctionEnd, 'Auction already ended.'); // bid must be placed before auction ends\n        require(msg.value > startPrice, 'Bid value must be higher than the starting price');\n        uint256 currentBid = bidderToAmount[msg.sender].add(msg.value);\n        require(currentBid > highestBid, 'Bid value must be higher.'); // bid must be higher than the current highest bid\n        bidderToAmount[msg.sender] = currentBid;\n        highestBid = currentBid;\n        highestBidder = msg.sender;\n        return true;\n    }\n\n    function returnAuctionBeneficiary() external view returns (address){\n        return(beneficiary);\n    }\n\n    function returnHighestBid() external view returns (uint256){\n        return(highestBid);\n    }\n\n    function returnHighestBidder() external view returns(address){\n        return(highestBidder);\n    }\n\n    function returnAuctionInfo() external view returns(string memory, uint256, string memory, uint256, State) {\n        return(title, startPrice, description, highestBid, state);\n    }\n\n    // this function deals with the transfer of money to the beneficiary, only can happen after auction ends\n    // only the beneficiary can call this function\n    function transferToBene() external payable onlyOwner() {\n        require(now > auctionEnd, 'Auction has not yet ended.');\n        beneficiary.transfer(highestBid);\n        bidderToAmount[highestBidder] = 0;\n        state = State.BeneficiaryPaid;\n    }\n\n    // this function deals with refunds to bidders, can only be called by bidders after beneficiary is paid\n    // change to state variables i.e. bidderToAmount[address] (which is the bid balance) is affected before the transfer of money\n    // the above prevents reentrancy attacks and increases contract security\n    function returnBid() external payable notOwner() {\n        require(state == State.BeneficiaryPaid, 'Funds have not yet been transferred to the beneficiary.');\n        require(bidderToAmount[msg.sender] > 0, 'You did not bid.');\n        uint256 amount = bidderToAmount[msg.sender];\n        bidderToAmount[msg.sender] = 0;\n        msg.sender.transfer(amount);\n    }\n}",
  "sourcePath": "/Users/AaronKo/Desktop/Solidity/Auction/contracts/Auction.sol",
  "compiler": {
    "name": "solc",
    "version": "0.5.8+commit.23d335f2.Emscripten.clang"
  },
  "schemaVersion": "3.0.11",
  "updatedAt": "2019-09-25T14:32:56.935Z",
  "devdoc": {
    "methods": {}
  },
  "userdoc": {
    "methods": {}
  }
}